{
  "address": "0xD8039420f1A61D0930127B89ab7Be23a7f21cd77",
  "abi": [
    {
      "inputs": [],
      "stateMutability": "nonpayable",
      "type": "constructor"
    },
    {
      "anonymous": false,
      "inputs": [
        {
          "indexed": true,
          "internalType": "uint256",
          "name": "id",
          "type": "uint256"
        },
        {
          "indexed": true,
          "internalType": "uint256",
          "name": "collectionId",
          "type": "uint256"
        },
        {
          "indexed": true,
          "internalType": "address",
          "name": "auctioneer",
          "type": "address"
        }
      ],
      "name": "AuctionCreated",
      "type": "event"
    },
    {
      "anonymous": false,
      "inputs": [
        {
          "indexed": true,
          "internalType": "uint256",
          "name": "id",
          "type": "uint256"
        },
        {
          "indexed": false,
          "internalType": "uint256",
          "name": "price",
          "type": "uint256"
        }
      ],
      "name": "AuctionStopped",
      "type": "event"
    },
    {
      "anonymous": false,
      "inputs": [
        {
          "indexed": true,
          "internalType": "uint256",
          "name": "id",
          "type": "uint256"
        },
        {
          "indexed": false,
          "internalType": "uint256",
          "name": "price",
          "type": "uint256"
        },
        {
          "indexed": false,
          "internalType": "address",
          "name": "paymentToken",
          "type": "address"
        },
        {
          "indexed": true,
          "internalType": "address",
          "name": "winner",
          "type": "address"
        }
      ],
      "name": "AuctionWon",
      "type": "event"
    },
    {
      "anonymous": false,
      "inputs": [
        {
          "indexed": false,
          "internalType": "uint256",
          "name": "id",
          "type": "uint256"
        },
        {
          "indexed": false,
          "internalType": "address",
          "name": "owner",
          "type": "address"
        }
      ],
      "name": "CollectionCreated",
      "type": "event"
    },
    {
      "anonymous": false,
      "inputs": [
        {
          "indexed": false,
          "internalType": "uint256",
          "name": "id",
          "type": "uint256"
        },
        {
          "indexed": false,
          "internalType": "address",
          "name": "from",
          "type": "address"
        },
        {
          "indexed": false,
          "internalType": "address",
          "name": "to",
          "type": "address"
        }
      ],
      "name": "CollectionTransfer",
      "type": "event"
    },
    {
      "inputs": [
        {
          "internalType": "uint256",
          "name": "_id",
          "type": "uint256"
        },
        {
          "internalType": "uint256",
          "name": "i",
          "type": "uint256"
        }
      ],
      "name": "auctionOfCollByIndex",
      "outputs": [
        {
          "internalType": "uint256",
          "name": "",
          "type": "uint256"
        }
      ],
      "stateMutability": "view",
      "type": "function"
    },
    {
      "inputs": [
        {
          "internalType": "address",
          "name": "_neer",
          "type": "address"
        },
        {
          "internalType": "uint256",
          "name": "i",
          "type": "uint256"
        }
      ],
      "name": "auctionOfNeerByIndex",
      "outputs": [
        {
          "internalType": "uint256",
          "name": "",
          "type": "uint256"
        }
      ],
      "stateMutability": "view",
      "type": "function"
    },
    {
      "inputs": [
        {
          "internalType": "uint256",
          "name": "_id",
          "type": "uint256"
        }
      ],
      "name": "bid",
      "outputs": [],
      "stateMutability": "nonpayable",
      "type": "function"
    },
    {
      "inputs": [
        {
          "internalType": "uint256",
          "name": "_id",
          "type": "uint256"
        }
      ],
      "name": "collectionLength",
      "outputs": [
        {
          "internalType": "uint256",
          "name": "",
          "type": "uint256"
        }
      ],
      "stateMutability": "view",
      "type": "function"
    },
    {
      "inputs": [
        {
          "components": [
            {
              "internalType": "uint256",
              "name": "ceiling",
              "type": "uint256"
            },
            {
              "internalType": "uint256",
              "name": "floor",
              "type": "uint256"
            },
            {
              "internalType": "uint256",
              "name": "collectionId",
              "type": "uint256"
            },
            {
              "internalType": "address",
              "name": "paymentToken",
              "type": "address"
            },
            {
              "internalType": "address",
              "name": "payee",
              "type": "address"
            },
            {
              "internalType": "uint256",
              "name": "endBlock",
              "type": "uint256"
            },
            {
              "internalType": "address[]",
              "name": "tokens",
              "type": "address[]"
            },
            {
              "internalType": "uint256[]",
              "name": "tokenAmounts",
              "type": "uint256[]"
            }
          ],
          "internalType": "struct IDescendingPriceAuction.DPAConfig",
          "name": "_auction",
          "type": "tuple"
        }
      ],
      "name": "createAuction",
      "outputs": [
        {
          "internalType": "uint256",
          "name": "",
          "type": "uint256"
        }
      ],
      "stateMutability": "nonpayable",
      "type": "function"
    },
    {
      "inputs": [],
      "name": "createCollection",
      "outputs": [
        {
          "internalType": "uint256",
          "name": "",
          "type": "uint256"
        }
      ],
      "stateMutability": "nonpayable",
      "type": "function"
    },
    {
      "inputs": [
        {
          "internalType": "uint256",
          "name": "_id",
          "type": "uint256"
        }
      ],
      "name": "getAuction",
      "outputs": [
        {
          "components": [
            {
              "internalType": "uint256",
              "name": "id",
              "type": "uint256"
            },
            {
              "internalType": "uint256",
              "name": "ceiling",
              "type": "uint256"
            },
            {
              "internalType": "uint256",
              "name": "floor",
              "type": "uint256"
            },
            {
              "internalType": "uint256",
              "name": "absoluteDecay",
              "type": "uint256"
            },
            {
              "internalType": "uint256",
              "name": "collectionId",
              "type": "uint256"
            },
            {
              "internalType": "address",
              "name": "paymentToken",
              "type": "address"
            },
            {
              "internalType": "address",
              "name": "payee",
              "type": "address"
            },
            {
              "internalType": "uint256",
              "name": "startBlock",
              "type": "uint256"
            },
            {
              "internalType": "uint256",
              "name": "endBlock",
              "type": "uint256"
            },
            {
              "internalType": "bool",
              "name": "stopped",
              "type": "bool"
            },
            {
              "internalType": "address",
              "name": "winner",
              "type": "address"
            },
            {
              "internalType": "uint256",
              "name": "winningBlock",
              "type": "uint256"
            },
            {
              "internalType": "uint256",
              "name": "winningPrice",
              "type": "uint256"
            },
            {
              "internalType": "address[]",
              "name": "tokens",
              "type": "address[]"
            },
            {
              "internalType": "uint256[]",
              "name": "tokenAmounts",
              "type": "uint256[]"
            }
          ],
          "internalType": "struct IDescendingPriceAuction.DPA",
          "name": "",
          "type": "tuple"
        }
      ],
      "stateMutability": "view",
      "type": "function"
    },
    {
      "inputs": [
        {
          "internalType": "uint256",
          "name": "_id",
          "type": "uint256"
        }
      ],
      "name": "getCurrentPrice",
      "outputs": [
        {
          "internalType": "uint256",
          "name": "",
          "type": "uint256"
        }
      ],
      "stateMutability": "view",
      "type": "function"
    },
    {
      "inputs": [
        {
          "internalType": "address",
          "name": "_neer",
          "type": "address"
        }
      ],
      "name": "neerGroupLength",
      "outputs": [
        {
          "internalType": "uint256",
          "name": "",
          "type": "uint256"
        }
      ],
      "stateMutability": "view",
      "type": "function"
    },
    {
      "inputs": [
        {
          "internalType": "uint256",
          "name": "_id",
          "type": "uint256"
        }
      ],
      "name": "stopAuction",
      "outputs": [],
      "stateMutability": "nonpayable",
      "type": "function"
    },
    {
      "inputs": [],
      "name": "totalAuctions",
      "outputs": [
        {
          "internalType": "uint256",
          "name": "",
          "type": "uint256"
        }
      ],
      "stateMutability": "view",
      "type": "function"
    },
    {
      "inputs": [],
      "name": "totalCollections",
      "outputs": [
        {
          "internalType": "uint256",
          "name": "",
          "type": "uint256"
        }
      ],
      "stateMutability": "view",
      "type": "function"
    },
    {
      "inputs": [
        {
          "internalType": "address",
          "name": "_to",
          "type": "address"
        },
        {
          "internalType": "uint256",
          "name": "_id",
          "type": "uint256"
        }
      ],
      "name": "transferCollection",
      "outputs": [],
      "stateMutability": "nonpayable",
      "type": "function"
    }
  ],
  "transactionHash": "0xf4f615c25e9471f0221f68f595cb7b62dfa4384b54138a06bb53fdaf50a9a22f",
  "args": [],
  "numDeployments": 1,
  "solcInputHash": "0e5dff8d98e63db1922f4b18374103a0",
  "bytecode": "0x60806040523480156200001157600080fd5b5060016000819055506200003160096200004e60201b620010ad1760201c565b6200004860086200004e60201b620010ad1760201c565b62000057565b80546001019055565b61232a80620000676000396000f3fe608060405234801561001057600080fd5b50600436106100df5760003560e01c8063647f1a9c1161008c5780637f8e5778116100665780637f8e577814610190578063c55d0f56146101a3578063f510f6ae146101b6578063fdce174f146101c957600080fd5b8063647f1a9c1461015557806378bd79351461015d5780637c222edd1461017d57600080fd5b80633c433775116100bd5780633c43377514610125578063454a2ab31461013857806361d9db2d1461014d57600080fd5b806307040590146100e457806315ea69a01461010a57806316002f4a1461011d575b600080fd5b6100f76100f2366004611ea6565b6101dc565b6040519081526020015b60405180910390f35b6100f7610118366004611f82565b610577565b6100f7610598565b6100f7610133366004611fa4565b6105a9565b61014b610146366004611fce565b6105cb565b005b6100f76109bb565b6100f76109c7565b61017061016b366004611fce565b610a4b565b604051610101919061205b565b6100f761018b36600461216c565b610c4e565b61014b61019e366004611fa4565b610c6f565b6100f76101b1366004611fce565b610d9b565b61014b6101c4366004611fce565b610e22565b6100f76101d7366004611fce565b611096565b60008160400151806000146102aa576000806101f96002846110b6565b915091508161024f5760405162461bcd60e51b815260206004820152601760248201527f6e6f6e2d6578697374656e742d636f6c6c656374696f6e00000000000000000060448201526064015b60405180910390fd5b336001600160a01b038216146102a75760405162461bcd60e51b815260206004820152601b60248201527f63616c6c65722d6e6f742d636f6c6c656374696f6e2d6f776e657200000000006044820152606401610246565b50505b6102b26110d4565b438360a00151116103055760405162461bcd60e51b815260206004820152601060248201527f656e642d626c6f636b2d706173736564000000000000000000000000000000006044820152606401610246565b82516103535760405162461bcd60e51b815260206004820152601060248201527f73746172742d70726963652d7a65726f000000000000000000000000000000006044820152606401610246565b6020830151835110156103a85760405162461bcd60e51b815260206004820152600f60248201527f696e76616c69642d70726963696e6700000000000000000000000000000000006044820152606401610246565b60608301516001600160a01b03166104025760405162461bcd60e51b815260206004820152601560248201527f696e76616c69642d7061796d656e742d746f6b656e00000000000000000000006044820152606401610246565b60808301516001600160a01b031661045c5760405162461bcd60e51b815260206004820152600d60248201527f696e76616c69642d7061796565000000000000000000000000000000000000006044820152606401610246565b60c0830151516104ae5760405162461bcd60e51b815260206004820152600d60248201527f6e6f2d6c696e652d6974656d73000000000000000000000000000000000000006044820152606401610246565b8260e00151518360c0015151146105075760405162461bcd60e51b815260206004820152601360248201527f696d70726f7065722d6c696e652d6974656d73000000000000000000000000006044820152606401610246565b60088360c00151511061055c5760405162461bcd60e51b815260206004820152601360248201527f746f6f2d6d616e792d6c696e652d6974656d73000000000000000000000000006044820152606401610246565b6105658361112e565b91506105716001600055565b50919050565b6000828152600b6020526040812061058f9083611411565b90505b92915050565b60006105a4600561141d565b905090565b6001600160a01b0382166000908152600a6020526040812061058f9083611411565b6105d36110d4565b6105dc81611428565b6106285760405162461bcd60e51b815260206004820152601260248201527f6e6f2d737563682d61756374696f6e2d696400000000000000000000000000006044820152606401610246565b6000818152600160205260409020600981015461010090046001600160a01b0316156106965760405162461bcd60e51b815260206004820152601160248201527f61756374696f6e2d6861732d656e6465640000000000000000000000000000006044820152606401610246565b600981015460ff16156106eb5760405162461bcd60e51b815260206004820152601860248201527f61756374696f6e2d6861732d6265656e2d73746f7070656400000000000000006044820152606401610246565b600061070582600301548360020154846008015443611435565b60058301546006840154919250339161072d916001600160a01b03908116918491168561148e565b6107e68184600c0180548060200260200160405190810160405280929190818152602001828054801561078957602002820191906000526020600020905b81546001600160a01b0316815260019091019060200180831161076b575b505050505085600d018054806020026020016040519081016040528092919081815260200182805480156107dc57602002820191906000526020600020905b8154815260200190600101908083116107c8575b50505050506115ff565b600983810180546001600160a01b038481166101009081027fffffffffffffffffffffff000000000000000000000000000000000000000000938416176001908117855543600a808b01918255600b808c018b815560008e81526020869052604090208d548155858e0154958101959095556002808e0154908601556003808e0154908601556004808e0154908601556005808e0154908601805473ffffffffffffffffffffffffffffffffffffffff19908116928a169290921790556006808f015490870180549092169089161790556007808e0154908601556008808e0154908601558854998501805460ff909b16151560ff198c168117825599548790049097169095027fffffffffffffffffffffff0000000000000000000000000000000000000000ff909816989096169790971795909517909255925493810193909355905490820155600c80850180548693926109469290840191611c26565b50600d828101805461095b9284019190611c26565b5050506005830154604080518481526001600160a01b0392831660208201529183169186917fde1cccedca835188bd43499aaf4e7aaa2f7c3c862515bfe520380d9fe2e4bd5b910160405180910390a35050506109b86001600055565b50565b60006105a4600261141d565b60006109d16110d4565b60006109dc60085490565b9050336109eb6002838361166d565b506109fa600880546001019055565b604080518381526001600160a01b03831660208201527f18c1b1c8856053698af995ce4384c0f661562c52a65d6dd29b910849d5e1bfca910160405180910390a1509050610a486001600055565b90565b610ae1604051806101e00160405280600081526020016000815260200160008152602001600081526020016000815260200160006001600160a01b0316815260200160006001600160a01b03168152602001600081526020016000815260200160001515815260200160006001600160a01b03168152602001600081526020016000815260200160608152602001606081525090565b60008281526001602081815260409283902083516101e081018552815481529281015483830152600281015483850152600381015460608401526004810154608084015260058101546001600160a01b0390811660a08501526006820154811660c0850152600782015460e0850152600882015461010080860191909152600983015460ff811615156101208701520416610140840152600a810154610160840152600b810154610180840152600c81018054855181850281018501909652808652939491936101a0860193830182828015610be657602002820191906000526020600020905b81546001600160a01b03168152600190910190602001808311610bc8575b50505050508152602001600d8201805480602002602001604051908101604052809291908181526020018280548015610c3e57602002820191906000526020600020905b815481526020019060010190808311610c2a575b5050505050815250509050919050565b6001600160a01b0381166000908152600a6020526040812061059290611683565b808015610d3057600080610c846002846110b6565b9150915081610cd55760405162461bcd60e51b815260206004820152601760248201527f6e6f6e2d6578697374656e742d636f6c6c656374696f6e0000000000000000006044820152606401610246565b336001600160a01b03821614610d2d5760405162461bcd60e51b815260206004820152601b60248201527f63616c6c65722d6e6f742d636f6c6c656374696f6e2d6f776e657200000000006044820152606401610246565b50505b610d386110d4565b610d446002838561166d565b50604080518381523360208201526001600160a01b0385168183015290517f10a4d063cb6061da8b4b65f353248458f41699a9478e085169b96ffc8e0a0ce99181900360600190a1610d966001600055565b505050565b6000610da682611428565b610df25760405162461bcd60e51b815260206004820152601260248201527f6e6f2d737563682d61756374696f6e2d696400000000000000000000000000006044820152606401610246565b6000828152600160205260409020600381015460028201546008830154610e1b92919043611435565b9392505050565b80600080610e316005846110b6565b9150915081610e825760405162461bcd60e51b815260206004820152601460248201527f6e6f6e2d6578697374656e742d61756374696f6e0000000000000000000000006044820152606401610246565b336001600160a01b03821614610eda5760405162461bcd60e51b815260206004820152601560248201527f63616c6c65722d6e6f742d61756374696f6e65657200000000000000000000006044820152606401610246565b610ee26110d4565b6000848152600160205260409020600981015461010090046001600160a01b0316158015610f155750600981015460ff16155b610f615760405162461bcd60e51b815260206004820152600f60248201527f63616e742d62652d73746f7070656400000000000000000000000000000000006044820152606401610246565b6110183382600c01805480602002602001604051908101604052809291908181526020018280548015610fbd57602002820191906000526020600020905b81546001600160a01b03168152600190910190602001808311610f9f575b505050505083600d018054806020026020016040519081016040528092919081815260200182805480156107dc57602002820191906000526020600020908154815260200190600101908083116107c85750505050506115ff565b6000858152600160208190526040909120600901805460ff1916909117905560038101546002820154600883015487927f24a128b5c09864569ad8b037db2ee1731a221f75aa4abfe66c3b6a3fd8931bb9926110749243611435565b60405190815260200160405180910390a2506110906001600055565b50505050565b6000818152600b6020526040812061059290611683565b80546001019055565b60008080806110c5868661168d565b909450925050505b9250929050565b600260005414156111275760405162461bcd60e51b815260206004820152601f60248201527f5265656e7472616e637947756172643a207265656e7472616e742063616c6c006044820152606401610246565b6002600055565b60006111428260c001518360e001516116c7565b600061114d60095490565b9050600061116984600001518560200151438760a00151611721565b9050604051806101e0016040528083815260200185600001518152602001856020015181526020018281526020018560400151815260200185606001516001600160a01b0316815260200185608001516001600160a01b031681526020014381526020018560a00151815260200160001515815260200160006001600160a01b0316815260200160008152602001600081526020018560c0015181526020018560e0015181525060016000848152602001908152602001600020600082015181600001556020820151816001015560408201518160020155606082015181600301556080820151816004015560a08201518160050160006101000a8154816001600160a01b0302191690836001600160a01b0316021790555060c08201518160060160006101000a8154816001600160a01b0302191690836001600160a01b0316021790555060e0820151816007015561010082015181600801556101208201518160090160006101000a81548160ff0219169083151502179055506101408201518160090160016101000a8154816001600160a01b0302191690836001600160a01b0316021790555061016082015181600a015561018082015181600b01556101a082015181600c019080519060200190611346929190611c76565b506101c0820151805161136391600d840191602090910190611cd8565b5090505060006113703390565b905061137e6005848361166d565b506001600160a01b0381166000908152600a602052604090206113a190846117f2565b506040808601516000908152600b602052206113bd90846117f2565b506113cc600980546001019055565b806001600160a01b03168560400151847f269c6afe2aca013f0509579e940c72d6b65c998b5a6846f4da1c50992c23c50e60405160405180910390a450909392505050565b600061058f83836117fe565b600061059282611828565b6000610592600583611833565b600082821115611446575082611486565b84611452575082611486565b670de0b6b3a7640000611465838561219d565b61146f90876121b4565b61147991906121d3565b61148390856121f5565b90505b949350505050565b6040516370a0823160e01b81526001600160a01b03838116600483015285916000918316906370a082319060240160206040518083038186803b1580156114d457600080fd5b505afa1580156114e8573d6000803e3d6000fd5b505050506040513d601f19601f8201168201806040525081019061150c919061220d565b90506115236001600160a01b03831686868661183f565b6040516370a0823160e01b81526001600160a01b038581166004830152849183918516906370a082319060240160206040518083038186803b15801561156857600080fd5b505afa15801561157c573d6000803e3d6000fd5b505050506040513d601f19601f820116820180604052508101906115a0919061220d565b6115aa919061219d565b146115f75760405162461bcd60e51b815260206004820152601660248201527f6e6f742d656e6f7567682d7472616e73666572726564000000000000000000006044820152606401610246565b505050505050565b60005b82518110156110905761165b8483838151811061162157611621612226565b602002602001015185848151811061163b5761163b612226565b60200260200101516001600160a01b03166118f09092919063ffffffff16565b806116658161223c565b915050611602565b600061148684846001600160a01b038516611939565b6000610592825490565b60008181526002830160205260408120548190806116bc576116af8585611956565b9250600091506110cd9050565b6001925090506110cd565b60005b8251811015610d965761170f8382815181106116e8576116e8612226565b602002602001015183838151811061170257611702612226565b6020026020010151611975565b806117198161223c565b9150506116ca565b60008282116117725760405162461bcd60e51b815260206004820152600c60248201527f696e76616c69642d72616d7000000000000000000000000000000000000000006044820152606401610246565b838510156117c25760405162461bcd60e51b815260206004820152601d60248201527f70726963652d6e6f742d64657363656e64696e672d6f722d636f6e73740000006044820152606401610246565b6117cc838361219d565b6117d6858761219d565b6117e890670de0b6b3a76400006121b4565b61148391906121d3565b600061058f83836119d2565b600082600001828154811061181557611815612226565b9060005260206000200154905092915050565b600061059282611683565b600061058f8383611956565b6040516001600160a01b03808516602483015283166044820152606481018290526110909085907f23b872dd00000000000000000000000000000000000000000000000000000000906084015b60408051601f198184030181529190526020810180517bffffffffffffffffffffffffffffffffffffffffffffffffffffffff167fffffffff0000000000000000000000000000000000000000000000000000000090931692909217909152611a21565b6040516001600160a01b038316602482015260448101829052610d969084907fa9059cbb000000000000000000000000000000000000000000000000000000009060640161188c565b6000828152600284016020526040812082905561148684846117f2565b600061058f83836000818152600183016020526040812054151561058f565b806119c25760405162461bcd60e51b815260206004820152601460248201527f696e76616c69642d746f6b656e2d616d6f756e740000000000000000000000006044820152606401610246565b6119ce8233308461148e565b5050565b6000818152600183016020526040812054611a1957508154600181810184556000848152602080822090930184905584548482528286019093526040902091909155610592565b506000610592565b6000611a76826040518060400160405280602081526020017f5361666545524332303a206c6f772d6c6576656c2063616c6c206661696c6564815250856001600160a01b0316611b069092919063ffffffff16565b805190915015610d965780806020019051810190611a949190612257565b610d965760405162461bcd60e51b815260206004820152602a60248201527f5361666545524332303a204552433230206f7065726174696f6e20646964206e60448201527f6f742073756363656564000000000000000000000000000000000000000000006064820152608401610246565b6060611486848460008585600080866001600160a01b03168587604051611b2d91906122a5565b60006040518083038185875af1925050503d8060008114611b6a576040519150601f19603f3d011682016040523d82523d6000602084013e611b6f565b606091505b5091509150611b8087838387611b8b565b979650505050505050565b60608315611bf7578251611bf0576001600160a01b0385163b611bf05760405162461bcd60e51b815260206004820152601d60248201527f416464726573733a2063616c6c20746f206e6f6e2d636f6e74726163740000006044820152606401610246565b5081611486565b6114868383815115611c0c5781518083602001fd5b8060405162461bcd60e51b815260040161024691906122c1565b828054828255906000526020600020908101928215611c665760005260206000209182015b82811115611c66578254825591600101919060010190611c4b565b50611c72929150611d13565b5090565b828054828255906000526020600020908101928215611c66579160200282015b82811115611c66578251825473ffffffffffffffffffffffffffffffffffffffff19166001600160a01b03909116178255602090920191600190910190611c96565b828054828255906000526020600020908101928215611c66579160200282015b82811115611c66578251825591602001919060010190611cf8565b5b80821115611c725760008155600101611d14565b634e487b7160e01b600052604160045260246000fd5b604051610100810167ffffffffffffffff81118282101715611d6257611d62611d28565b60405290565b604051601f8201601f1916810167ffffffffffffffff81118282101715611d9157611d91611d28565b604052919050565b80356001600160a01b0381168114611db057600080fd5b919050565b600067ffffffffffffffff821115611dcf57611dcf611d28565b5060051b60200190565b600082601f830112611dea57600080fd5b81356020611dff611dfa83611db5565b611d68565b82815260059290921b84018101918181019086841115611e1e57600080fd5b8286015b84811015611e4057611e3381611d99565b8352918301918301611e22565b509695505050505050565b600082601f830112611e5c57600080fd5b81356020611e6c611dfa83611db5565b82815260059290921b84018101918181019086841115611e8b57600080fd5b8286015b84811015611e405780358352918301918301611e8f565b600060208284031215611eb857600080fd5b813567ffffffffffffffff80821115611ed057600080fd5b908301906101008286031215611ee557600080fd5b611eed611d3e565b823581526020830135602082015260408301356040820152611f1160608401611d99565b6060820152611f2260808401611d99565b608082015260a083013560a082015260c083013582811115611f4357600080fd5b611f4f87828601611dd9565b60c08301525060e083013582811115611f6757600080fd5b611f7387828601611e4b565b60e08301525095945050505050565b60008060408385031215611f9557600080fd5b50508035926020909101359150565b60008060408385031215611fb757600080fd5b611fc083611d99565b946020939093013593505050565b600060208284031215611fe057600080fd5b5035919050565b600081518084526020808501945080840160005b838110156120205781516001600160a01b031687529582019590820190600101611ffb565b509495945050505050565b600081518084526020808501945080840160005b838110156120205781518752958201959082019060010161203f565b6020815281516020820152602082015160408201526040820151606082015260608201516080820152608082015160a0820152600060a08301516120aa60c08401826001600160a01b03169052565b5060c08301516001600160a01b03811660e08401525060e083015161010083810191909152830151610120808401919091528301516101406120ef8185018315159052565b840151905061016061210b848201836001600160a01b03169052565b840151610180848101919091528401516101a0808501919091528401516101e06101c080860182905291925090612146610200860184611fe7565b90860151858203601f190183870152909250612162838261202b565b9695505050505050565b60006020828403121561217e57600080fd5b61058f82611d99565b634e487b7160e01b600052601160045260246000fd5b6000828210156121af576121af612187565b500390565b60008160001904831182151516156121ce576121ce612187565b500290565b6000826121f057634e487b7160e01b600052601260045260246000fd5b500490565b6000821982111561220857612208612187565b500190565b60006020828403121561221f57600080fd5b5051919050565b634e487b7160e01b600052603260045260246000fd5b600060001982141561225057612250612187565b5060010190565b60006020828403121561226957600080fd5b81518015158114610e1b57600080fd5b60005b8381101561229457818101518382015260200161227c565b838111156110905750506000910152565b600082516122b7818460208701612279565b9190910192915050565b60208152600082518060208401526122e0816040850160208701612279565b601f01601f1916919091016040019291505056fea26469706673582212208341c2526a9de162882e6428d95909474e62d20dd57e4fd9b83da64d5e9e0f8f64736f6c63430008090033",
  "devdoc": {
    "kind": "dev",
    "methods": {},
    "version": 1
  },
  "userdoc": {
    "kind": "user",
    "methods": {},
    "version": 1
  },
  "storageLayout": {
    "storage": [
      {
        "astId": 657,
        "contract": "contracts/DescendingPriceAuction.sol:DescendingPriceAuction",
        "label": "_status",
        "offset": 0,
        "slot": "0",
        "type": "t_uint256"
      },
      {
        "astId": 5202,
        "contract": "contracts/DescendingPriceAuction.sol:DescendingPriceAuction",
        "label": "auctions",
        "offset": 0,
        "slot": "1",
        "type": "t_mapping(t_uint256,t_struct(DPA)6187_storage)"
      },
      {
        "astId": 5205,
        "contract": "contracts/DescendingPriceAuction.sol:DescendingPriceAuction",
        "label": "collections",
        "offset": 0,
        "slot": "2",
        "type": "t_struct(UintToAddressMap)3879_storage"
      },
      {
        "astId": 5208,
        "contract": "contracts/DescendingPriceAuction.sol:DescendingPriceAuction",
        "label": "auctioneers",
        "offset": 0,
        "slot": "5",
        "type": "t_struct(UintToAddressMap)3879_storage"
      },
      {
        "astId": 5211,
        "contract": "contracts/DescendingPriceAuction.sol:DescendingPriceAuction",
        "label": "collectionCount",
        "offset": 0,
        "slot": "8",
        "type": "t_struct(Counter)2282_storage"
      },
      {
        "astId": 5214,
        "contract": "contracts/DescendingPriceAuction.sol:DescendingPriceAuction",
        "label": "auctionCount",
        "offset": 0,
        "slot": "9",
        "type": "t_struct(Counter)2282_storage"
      },
      {
        "astId": 5219,
        "contract": "contracts/DescendingPriceAuction.sol:DescendingPriceAuction",
        "label": "_byNeer",
        "offset": 0,
        "slot": "10",
        "type": "t_mapping(t_address,t_struct(UintSet)5031_storage)"
      },
      {
        "astId": 5224,
        "contract": "contracts/DescendingPriceAuction.sol:DescendingPriceAuction",
        "label": "_byColl",
        "offset": 0,
        "slot": "11",
        "type": "t_mapping(t_uint256,t_struct(UintSet)5031_storage)"
      }
    ],
    "types": {
      "t_address": {
        "encoding": "inplace",
        "label": "address",
        "numberOfBytes": "20"
      },
      "t_array(t_address)dyn_storage": {
        "base": "t_address",
        "encoding": "dynamic_array",
        "label": "address[]",
        "numberOfBytes": "32"
      },
      "t_array(t_bytes32)dyn_storage": {
        "base": "t_bytes32",
        "encoding": "dynamic_array",
        "label": "bytes32[]",
        "numberOfBytes": "32"
      },
      "t_array(t_uint256)dyn_storage": {
        "base": "t_uint256",
        "encoding": "dynamic_array",
        "label": "uint256[]",
        "numberOfBytes": "32"
      },
      "t_bool": {
        "encoding": "inplace",
        "label": "bool",
        "numberOfBytes": "1"
      },
      "t_bytes32": {
        "encoding": "inplace",
        "label": "bytes32",
        "numberOfBytes": "32"
      },
      "t_mapping(t_address,t_struct(UintSet)5031_storage)": {
        "encoding": "mapping",
        "key": "t_address",
        "label": "mapping(address => struct EnumerableSet.UintSet)",
        "numberOfBytes": "32",
        "value": "t_struct(UintSet)5031_storage"
      },
      "t_mapping(t_bytes32,t_bytes32)": {
        "encoding": "mapping",
        "key": "t_bytes32",
        "label": "mapping(bytes32 => bytes32)",
        "numberOfBytes": "32",
        "value": "t_bytes32"
      },
      "t_mapping(t_bytes32,t_uint256)": {
        "encoding": "mapping",
        "key": "t_bytes32",
        "label": "mapping(bytes32 => uint256)",
        "numberOfBytes": "32",
        "value": "t_uint256"
      },
      "t_mapping(t_uint256,t_struct(DPA)6187_storage)": {
        "encoding": "mapping",
        "key": "t_uint256",
        "label": "mapping(uint256 => struct IDescendingPriceAuction.DPA)",
        "numberOfBytes": "32",
        "value": "t_struct(DPA)6187_storage"
      },
      "t_mapping(t_uint256,t_struct(UintSet)5031_storage)": {
        "encoding": "mapping",
        "key": "t_uint256",
        "label": "mapping(uint256 => struct EnumerableSet.UintSet)",
        "numberOfBytes": "32",
        "value": "t_struct(UintSet)5031_storage"
      },
      "t_struct(Bytes32Set)4753_storage": {
        "encoding": "inplace",
        "label": "struct EnumerableSet.Bytes32Set",
        "members": [
          {
            "astId": 4752,
            "contract": "contracts/DescendingPriceAuction.sol:DescendingPriceAuction",
            "label": "_inner",
            "offset": 0,
            "slot": "0",
            "type": "t_struct(Set)4559_storage"
          }
        ],
        "numberOfBytes": "64"
      },
      "t_struct(Bytes32ToBytes32Map)3442_storage": {
        "encoding": "inplace",
        "label": "struct EnumerableMap.Bytes32ToBytes32Map",
        "members": [
          {
            "astId": 3437,
            "contract": "contracts/DescendingPriceAuction.sol:DescendingPriceAuction",
            "label": "_keys",
            "offset": 0,
            "slot": "0",
            "type": "t_struct(Bytes32Set)4753_storage"
          },
          {
            "astId": 3441,
            "contract": "contracts/DescendingPriceAuction.sol:DescendingPriceAuction",
            "label": "_values",
            "offset": 0,
            "slot": "2",
            "type": "t_mapping(t_bytes32,t_bytes32)"
          }
        ],
        "numberOfBytes": "96"
      },
      "t_struct(Counter)2282_storage": {
        "encoding": "inplace",
        "label": "struct Counters.Counter",
        "members": [
          {
            "astId": 2281,
            "contract": "contracts/DescendingPriceAuction.sol:DescendingPriceAuction",
            "label": "_value",
            "offset": 0,
            "slot": "0",
            "type": "t_uint256"
          }
        ],
        "numberOfBytes": "32"
      },
      "t_struct(DPA)6187_storage": {
        "encoding": "inplace",
        "label": "struct IDescendingPriceAuction.DPA",
        "members": [
          {
            "astId": 6156,
            "contract": "contracts/DescendingPriceAuction.sol:DescendingPriceAuction",
            "label": "id",
            "offset": 0,
            "slot": "0",
            "type": "t_uint256"
          },
          {
            "astId": 6158,
            "contract": "contracts/DescendingPriceAuction.sol:DescendingPriceAuction",
            "label": "ceiling",
            "offset": 0,
            "slot": "1",
            "type": "t_uint256"
          },
          {
            "astId": 6160,
            "contract": "contracts/DescendingPriceAuction.sol:DescendingPriceAuction",
            "label": "floor",
            "offset": 0,
            "slot": "2",
            "type": "t_uint256"
          },
          {
            "astId": 6162,
            "contract": "contracts/DescendingPriceAuction.sol:DescendingPriceAuction",
            "label": "absoluteDecay",
            "offset": 0,
            "slot": "3",
            "type": "t_uint256"
          },
          {
            "astId": 6164,
            "contract": "contracts/DescendingPriceAuction.sol:DescendingPriceAuction",
            "label": "collectionId",
            "offset": 0,
            "slot": "4",
            "type": "t_uint256"
          },
          {
            "astId": 6166,
            "contract": "contracts/DescendingPriceAuction.sol:DescendingPriceAuction",
            "label": "paymentToken",
            "offset": 0,
            "slot": "5",
            "type": "t_address"
          },
          {
            "astId": 6168,
            "contract": "contracts/DescendingPriceAuction.sol:DescendingPriceAuction",
            "label": "payee",
            "offset": 0,
            "slot": "6",
            "type": "t_address"
          },
          {
            "astId": 6170,
            "contract": "contracts/DescendingPriceAuction.sol:DescendingPriceAuction",
            "label": "startBlock",
            "offset": 0,
            "slot": "7",
            "type": "t_uint256"
          },
          {
            "astId": 6172,
            "contract": "contracts/DescendingPriceAuction.sol:DescendingPriceAuction",
            "label": "endBlock",
            "offset": 0,
            "slot": "8",
            "type": "t_uint256"
          },
          {
            "astId": 6174,
            "contract": "contracts/DescendingPriceAuction.sol:DescendingPriceAuction",
            "label": "stopped",
            "offset": 0,
            "slot": "9",
            "type": "t_bool"
          },
          {
            "astId": 6176,
            "contract": "contracts/DescendingPriceAuction.sol:DescendingPriceAuction",
            "label": "winner",
            "offset": 1,
            "slot": "9",
            "type": "t_address"
          },
          {
            "astId": 6178,
            "contract": "contracts/DescendingPriceAuction.sol:DescendingPriceAuction",
            "label": "winningBlock",
            "offset": 0,
            "slot": "10",
            "type": "t_uint256"
          },
          {
            "astId": 6180,
            "contract": "contracts/DescendingPriceAuction.sol:DescendingPriceAuction",
            "label": "winningPrice",
            "offset": 0,
            "slot": "11",
            "type": "t_uint256"
          },
          {
            "astId": 6183,
            "contract": "contracts/DescendingPriceAuction.sol:DescendingPriceAuction",
            "label": "tokens",
            "offset": 0,
            "slot": "12",
            "type": "t_array(t_address)dyn_storage"
          },
          {
            "astId": 6186,
            "contract": "contracts/DescendingPriceAuction.sol:DescendingPriceAuction",
            "label": "tokenAmounts",
            "offset": 0,
            "slot": "13",
            "type": "t_array(t_uint256)dyn_storage"
          }
        ],
        "numberOfBytes": "448"
      },
      "t_struct(Set)4559_storage": {
        "encoding": "inplace",
        "label": "struct EnumerableSet.Set",
        "members": [
          {
            "astId": 4554,
            "contract": "contracts/DescendingPriceAuction.sol:DescendingPriceAuction",
            "label": "_values",
            "offset": 0,
            "slot": "0",
            "type": "t_array(t_bytes32)dyn_storage"
          },
          {
            "astId": 4558,
            "contract": "contracts/DescendingPriceAuction.sol:DescendingPriceAuction",
            "label": "_indexes",
            "offset": 0,
            "slot": "1",
            "type": "t_mapping(t_bytes32,t_uint256)"
          }
        ],
        "numberOfBytes": "64"
      },
      "t_struct(UintSet)5031_storage": {
        "encoding": "inplace",
        "label": "struct EnumerableSet.UintSet",
        "members": [
          {
            "astId": 5030,
            "contract": "contracts/DescendingPriceAuction.sol:DescendingPriceAuction",
            "label": "_inner",
            "offset": 0,
            "slot": "0",
            "type": "t_struct(Set)4559_storage"
          }
        ],
        "numberOfBytes": "64"
      },
      "t_struct(UintToAddressMap)3879_storage": {
        "encoding": "inplace",
        "label": "struct EnumerableMap.UintToAddressMap",
        "members": [
          {
            "astId": 3878,
            "contract": "contracts/DescendingPriceAuction.sol:DescendingPriceAuction",
            "label": "_inner",
            "offset": 0,
            "slot": "0",
            "type": "t_struct(Bytes32ToBytes32Map)3442_storage"
          }
        ],
        "numberOfBytes": "96"
      },
      "t_uint256": {
        "encoding": "inplace",
        "label": "uint256",
        "numberOfBytes": "32"
      }
    }
  }
}