{
  "address": "0x5FbDB2315678afecb367f032d93F642f64180aa3",
  "abi": [
    {
      "inputs": [],
      "stateMutability": "nonpayable",
      "type": "constructor"
    },
    {
      "anonymous": false,
      "inputs": [
        {
          "indexed": false,
          "internalType": "uint256",
          "name": "id",
          "type": "uint256"
        },
        {
          "indexed": false,
          "internalType": "uint256",
          "name": "collectionId",
          "type": "uint256"
        },
        {
          "indexed": false,
          "internalType": "address",
          "name": "auctioneer",
          "type": "address"
        }
      ],
      "name": "AuctionCreated",
      "type": "event"
    },
    {
      "anonymous": false,
      "inputs": [
        {
          "indexed": false,
          "internalType": "uint256",
          "name": "id",
          "type": "uint256"
        }
      ],
      "name": "AuctionStopped",
      "type": "event"
    },
    {
      "anonymous": false,
      "inputs": [
        {
          "indexed": false,
          "internalType": "uint256",
          "name": "id",
          "type": "uint256"
        },
        {
          "indexed": false,
          "internalType": "uint256",
          "name": "price",
          "type": "uint256"
        },
        {
          "indexed": false,
          "internalType": "address",
          "name": "paymentToken",
          "type": "address"
        },
        {
          "indexed": false,
          "internalType": "address",
          "name": "winner",
          "type": "address"
        }
      ],
      "name": "AuctionWon",
      "type": "event"
    },
    {
      "anonymous": false,
      "inputs": [
        {
          "indexed": false,
          "internalType": "uint256",
          "name": "id",
          "type": "uint256"
        },
        {
          "indexed": false,
          "internalType": "address",
          "name": "owner",
          "type": "address"
        }
      ],
      "name": "CollectionCreated",
      "type": "event"
    },
    {
      "anonymous": false,
      "inputs": [
        {
          "indexed": false,
          "internalType": "uint256",
          "name": "id",
          "type": "uint256"
        },
        {
          "indexed": false,
          "internalType": "address",
          "name": "from",
          "type": "address"
        },
        {
          "indexed": false,
          "internalType": "address",
          "name": "to",
          "type": "address"
        }
      ],
      "name": "CollectionTransfer",
      "type": "event"
    },
    {
      "inputs": [
        {
          "internalType": "uint256",
          "name": "_id",
          "type": "uint256"
        },
        {
          "internalType": "uint256",
          "name": "i",
          "type": "uint256"
        }
      ],
      "name": "auctionOfCollByIndex",
      "outputs": [
        {
          "internalType": "uint256",
          "name": "",
          "type": "uint256"
        }
      ],
      "stateMutability": "view",
      "type": "function"
    },
    {
      "inputs": [
        {
          "internalType": "address",
          "name": "_neer",
          "type": "address"
        },
        {
          "internalType": "uint256",
          "name": "i",
          "type": "uint256"
        }
      ],
      "name": "auctionOfNeerByIndex",
      "outputs": [
        {
          "internalType": "uint256",
          "name": "",
          "type": "uint256"
        }
      ],
      "stateMutability": "view",
      "type": "function"
    },
    {
      "inputs": [
        {
          "internalType": "uint256",
          "name": "_id",
          "type": "uint256"
        }
      ],
      "name": "bid",
      "outputs": [],
      "stateMutability": "nonpayable",
      "type": "function"
    },
    {
      "inputs": [
        {
          "internalType": "uint256",
          "name": "_id",
          "type": "uint256"
        }
      ],
      "name": "collectionLength",
      "outputs": [
        {
          "internalType": "uint256",
          "name": "",
          "type": "uint256"
        }
      ],
      "stateMutability": "view",
      "type": "function"
    },
    {
      "inputs": [
        {
          "components": [
            {
              "internalType": "uint256",
              "name": "ceiling",
              "type": "uint256"
            },
            {
              "internalType": "uint256",
              "name": "floor",
              "type": "uint256"
            },
            {
              "internalType": "uint256",
              "name": "collectionId",
              "type": "uint256"
            },
            {
              "internalType": "address",
              "name": "paymentToken",
              "type": "address"
            },
            {
              "internalType": "address",
              "name": "payee",
              "type": "address"
            },
            {
              "internalType": "uint256",
              "name": "endBlock",
              "type": "uint256"
            },
            {
              "internalType": "address[]",
              "name": "tokens",
              "type": "address[]"
            },
            {
              "internalType": "uint256[]",
              "name": "tokenAmounts",
              "type": "uint256[]"
            }
          ],
          "internalType": "struct DPAConfig",
          "name": "_auction",
          "type": "tuple"
        }
      ],
      "name": "createAuction",
      "outputs": [
        {
          "internalType": "uint256",
          "name": "",
          "type": "uint256"
        }
      ],
      "stateMutability": "nonpayable",
      "type": "function"
    },
    {
      "inputs": [],
      "name": "createCollection",
      "outputs": [
        {
          "internalType": "uint256",
          "name": "",
          "type": "uint256"
        }
      ],
      "stateMutability": "nonpayable",
      "type": "function"
    },
    {
      "inputs": [
        {
          "internalType": "uint256",
          "name": "_id",
          "type": "uint256"
        }
      ],
      "name": "getAuction",
      "outputs": [
        {
          "components": [
            {
              "internalType": "uint256",
              "name": "id",
              "type": "uint256"
            },
            {
              "internalType": "uint256",
              "name": "ceiling",
              "type": "uint256"
            },
            {
              "internalType": "uint256",
              "name": "floor",
              "type": "uint256"
            },
            {
              "internalType": "uint256",
              "name": "absoluteDecay",
              "type": "uint256"
            },
            {
              "internalType": "uint256",
              "name": "collectionId",
              "type": "uint256"
            },
            {
              "internalType": "address",
              "name": "paymentToken",
              "type": "address"
            },
            {
              "internalType": "address",
              "name": "payee",
              "type": "address"
            },
            {
              "internalType": "uint256",
              "name": "startBlock",
              "type": "uint256"
            },
            {
              "internalType": "uint256",
              "name": "endBlock",
              "type": "uint256"
            },
            {
              "internalType": "bool",
              "name": "stopped",
              "type": "bool"
            },
            {
              "internalType": "address",
              "name": "winner",
              "type": "address"
            },
            {
              "internalType": "uint256",
              "name": "winningBlock",
              "type": "uint256"
            },
            {
              "internalType": "uint256",
              "name": "winningPrice",
              "type": "uint256"
            },
            {
              "internalType": "address[]",
              "name": "tokens",
              "type": "address[]"
            },
            {
              "internalType": "uint256[]",
              "name": "tokenAmounts",
              "type": "uint256[]"
            }
          ],
          "internalType": "struct DPA",
          "name": "",
          "type": "tuple"
        }
      ],
      "stateMutability": "view",
      "type": "function"
    },
    {
      "inputs": [
        {
          "internalType": "uint256",
          "name": "_id",
          "type": "uint256"
        }
      ],
      "name": "getCurrentPrice",
      "outputs": [
        {
          "internalType": "uint256",
          "name": "",
          "type": "uint256"
        }
      ],
      "stateMutability": "view",
      "type": "function"
    },
    {
      "inputs": [
        {
          "internalType": "address",
          "name": "_neer",
          "type": "address"
        }
      ],
      "name": "neerGroupLength",
      "outputs": [
        {
          "internalType": "uint256",
          "name": "",
          "type": "uint256"
        }
      ],
      "stateMutability": "view",
      "type": "function"
    },
    {
      "inputs": [
        {
          "internalType": "uint256",
          "name": "_id",
          "type": "uint256"
        }
      ],
      "name": "stopAuction",
      "outputs": [],
      "stateMutability": "nonpayable",
      "type": "function"
    },
    {
      "inputs": [],
      "name": "totalAuctions",
      "outputs": [
        {
          "internalType": "uint256",
          "name": "",
          "type": "uint256"
        }
      ],
      "stateMutability": "view",
      "type": "function"
    },
    {
      "inputs": [],
      "name": "totalCollections",
      "outputs": [
        {
          "internalType": "uint256",
          "name": "",
          "type": "uint256"
        }
      ],
      "stateMutability": "view",
      "type": "function"
    },
    {
      "inputs": [
        {
          "internalType": "address",
          "name": "_to",
          "type": "address"
        },
        {
          "internalType": "uint256",
          "name": "_id",
          "type": "uint256"
        }
      ],
      "name": "transferCollection",
      "outputs": [],
      "stateMutability": "nonpayable",
      "type": "function"
    }
  ],
  "transactionHash": "0x4813bccfe3e321c9e7de20d024a82fb78acc29d1aa64abdf6ad2b6ca1f92d7f8",
  "args": [],
  "solcInputHash": "939c9ce9d7f910ae999285b0f0eb370e",
  "bytecode": "0x60806040523480156200001157600080fd5b5060016000819055506200003160096200004e60201b6200101d1760201c565b6200004860086200004e60201b6200101d1760201c565b62000057565b80546001019055565b61223680620000676000396000f3fe608060405234801561001057600080fd5b50600436106100cf5760003560e01c8063647f1a9c1161008c5780637f8e5778116100665780637f8e577814610180578063c55d0f5614610193578063f510f6ae146101a6578063fdce174f146101b9576100cf565b8063647f1a9c1461014557806378bd79351461014d5780637c222edd1461016d576100cf565b806307040590146100d457806315ea69a0146100fa57806316002f4a1461010d5780633c43377514610115578063454a2ab31461012857806361d9db2d1461013d575b600080fd5b6100e76100e2366004611d94565b6101cc565b6040519081526020015b60405180910390f35b6100e7610108366004611ea0565b610517565b6100e7610538565b6100e7610123366004611d4b565b610549565b61013b610136366004611e70565b61056b565b005b6100e761092b565b6100e7610937565b61016061015b366004611e70565b6109cf565b6040516100f19190611fb9565b6100e761017b366004611d31565b610bd3565b61013b61018e366004611d4b565b610bf4565b6100e76101a1366004611e70565b610d36565b61013b6101b4366004611e70565b610db2565b6100e76101c7366004611e70565b611006565b6000816040015180600014610294576000806101e9600284611026565b91509150816102395760405162461bcd60e51b81526020600482015260176024820152763737b716b2bc34b9ba32b73a16b1b7b63632b1ba34b7b760491b60448201526064015b60405180910390fd5b336001600160a01b038216146102915760405162461bcd60e51b815260206004820152601b60248201527f63616c6c65722d6e6f742d636f6c6c656374696f6e2d6f776e657200000000006044820152606401610230565b50505b600260005414156102b75760405162461bcd60e51b815260040161023090611f82565b600260005560a083015143106103025760405162461bcd60e51b815260206004820152601060248201526f195b990b589b1bd8dacb5c185cdcd95960821b6044820152606401610230565b82516103435760405162461bcd60e51b815260206004820152601060248201526f73746172742d70726963652d7a65726f60801b6044820152606401610230565b60208301518351101561038a5760405162461bcd60e51b815260206004820152600f60248201526e696e76616c69642d70726963696e6760881b6044820152606401610230565b60608301516001600160a01b03166103dc5760405162461bcd60e51b815260206004820152601560248201527434b73b30b634b216b830bcb6b2b73a16ba37b5b2b760591b6044820152606401610230565b60808301516001600160a01b03166104265760405162461bcd60e51b815260206004820152600d60248201526c696e76616c69642d706179656560981b6044820152606401610230565b60c0830151516104685760405162461bcd60e51b815260206004820152600d60248201526c6e6f2d6c696e652d6974656d7360981b6044820152606401610230565b8260e00151518360c0015151146104b75760405162461bcd60e51b8152602060048201526013602482015272696d70726f7065722d6c696e652d6974656d7360681b6044820152606401610230565b60088360c0015151106105025760405162461bcd60e51b8152602060048201526013602482015272746f6f2d6d616e792d6c696e652d6974656d7360681b6044820152606401610230565b61050b83611044565b60016000559392505050565b6000828152600b6020526040812061052f9083611338565b90505b92915050565b60006105446005611344565b905090565b6001600160a01b0382166000908152600a6020526040812061052f9083611338565b6002600054141561058e5760405162461bcd60e51b815260040161023090611f82565b600260005561059c8161134f565b6105dd5760405162461bcd60e51b81526020600482015260126024820152711b9bcb5cdd58da0b585d58dd1a5bdb8b5a5960721b6044820152606401610230565b6000818152600160205260409020600981015461010090046001600160a01b03161561063f5760405162461bcd60e51b8152602060048201526011602482015270185d58dd1a5bdb8b5a185ccb595b991959607a1b6044820152606401610230565b600981015460ff16156106945760405162461bcd60e51b815260206004820152601860248201527f61756374696f6e2d6861732d6265656e2d73746f7070656400000000000000006044820152606401610230565b60006106ae8260030154836002015484600801544361135c565b6005830154600684015491925033916106d6916001600160a01b0390811691849116856113b5565b61078f8184600c0180548060200260200160405190810160405280929190818152602001828054801561073257602002820191906000526020600020905b81546001600160a01b03168152600190910190602001808311610714575b505050505085600d0180548060200260200160405190810160405280929190818152602001828054801561078557602002820191906000526020600020905b815481526020019060010190808311610771575b505050505061151f565b600983810180546001600160a01b038481166101009081026001600160a81b0319938416176001908117855543600a808b01918255600b808c018b815560008e81526020869052604090208d548155858e0154958101959095556002808e0154908601556003808e0154908601556004808e0154908601556005808e015490860180546001600160a01b0319908116928a169290921790556006808f015490870180549092169089161790556007808e0154908601556008808e0154908601558854998501805460ff909b16151560ff198c16811782559954879004909716909502610100600160a81b0319909816989096169790971795909517909255925493810193909355905490820155600c80850180548693926108b39290840191611b52565b50600d82810180546108c89284019190611b52565b505050600583015460408051868152602081018590526001600160a01b03928316818301529183166060830152517fde1cccedca835188bd43499aaf4e7aaa2f7c3c862515bfe520380d9fe2e4bd5b9181900360800190a1505060016000555050565b60006105446002611344565b60006002600054141561095c5760405162461bcd60e51b815260040161023090611f82565b600260008190556008549033906109749083836115af565b50610983600880546001019055565b604080518381526001600160a01b03831660208201527f18c1b1c8856053698af995ce4384c0f661562c52a65d6dd29b910849d5e1bfca910160405180910390a1509050600160005590565b610a65604051806101e00160405280600081526020016000815260200160008152602001600081526020016000815260200160006001600160a01b0316815260200160006001600160a01b03168152602001600081526020016000815260200160001515815260200160006001600160a01b03168152602001600081526020016000815260200160608152602001606081525090565b60008281526001602081815260409283902083516101e081018552815481529281015483830152600281015483850152600381015460608401526004810154608084015260058101546001600160a01b0390811660a08501526006820154811660c0850152600782015460e0850152600882015461010080860191909152600983015460ff811615156101208701520416610140840152600a810154610160840152600b810154610180840152600c81018054855181850281018501909652808652939491936101a0860193830182828015610b6a57602002820191906000526020600020905b81546001600160a01b03168152600190910190602001808311610b4c575b50505050508152602001600d8201805480602002602001604051908101604052809291908181526020018280548015610bc257602002820191906000526020600020905b815481526020019060010190808311610bae575b50505050508152505090505b919050565b6001600160a01b0381166000908152600a60205260408120610532906115c5565b808015610caf57600080610c09600284611026565b9150915081610c545760405162461bcd60e51b81526020600482015260176024820152763737b716b2bc34b9ba32b73a16b1b7b63632b1ba34b7b760491b6044820152606401610230565b336001600160a01b03821614610cac5760405162461bcd60e51b815260206004820152601b60248201527f63616c6c65722d6e6f742d636f6c6c656374696f6e2d6f776e657200000000006044820152606401610230565b50505b60026000541415610cd25760405162461bcd60e51b815260040161023090611f82565b60026000819055610ce49083856115af565b50604080518381523360208201526001600160a01b0385168183015290517f10a4d063cb6061da8b4b65f353248458f41699a9478e085169b96ffc8e0a0ce99181900360600190a15050600160005550565b6000610d418261134f565b610d825760405162461bcd60e51b81526020600482015260126024820152711b9bcb5cdd58da0b585d58dd1a5bdb8b5a5960721b6044820152606401610230565b6000828152600160205260409020600381015460028201546008830154610dab9291904361135c565b9392505050565b80600080610dc1600584611026565b9150915081610e095760405162461bcd60e51b81526020600482015260146024820152733737b716b2bc34b9ba32b73a16b0bab1ba34b7b760611b6044820152606401610230565b336001600160a01b03821614610e595760405162461bcd60e51b815260206004820152601560248201527431b0b63632b916b737ba16b0bab1ba34b7b732b2b960591b6044820152606401610230565b60026000541415610e7c5760405162461bcd60e51b815260040161023090611f82565b60026000908155848152600160205260409020600981015461010090046001600160a01b0316158015610eb45750600981015460ff16155b610ef25760405162461bcd60e51b815260206004820152600f60248201526e18d85b9d0b58994b5cdd1bdc1c1959608a1b6044820152606401610230565b610fa93382600c01805480602002602001604051908101604052809291908181526020018280548015610f4e57602002820191906000526020600020905b81546001600160a01b03168152600190910190602001808311610f30575b505050505083600d01805480602002602001604051908101604052809291908181526020018280548015610785576020028201919060005260206000209081548152602001906001019080831161077157505050505061151f565b600085815260016020818152604092839020600901805460ff191690921790915590518681527ff0968c9745ca5ed62dfb850fef20f125b146d3460dbbfeaab73e47be81ea5b61910160405180910390a150506001600055505050565b6000818152600b60205260408120610532906115c5565b80546001019055565b600080808061103586866115cf565b909450925050505b9250929050565b60006110588260c001518360e00151611609565b600061106360095490565b9050600061107f84600001518560200151438760a00151611684565b9050604051806101e0016040528083815260200185600001518152602001856020015181526020018281526020018560400151815260200185606001516001600160a01b0316815260200185608001516001600160a01b031681526020014381526020018560a00151815260200160001515815260200160006001600160a01b0316815260200160008152602001600081526020018560c0015181526020018560e0015181525060016000848152602001908152602001600020600082015181600001556020820151816001015560408201518160020155606082015181600301556080820151816004015560a08201518160050160006101000a8154816001600160a01b0302191690836001600160a01b0316021790555060c08201518160060160006101000a8154816001600160a01b0302191690836001600160a01b0316021790555060e0820151816007015561010082015181600801556101208201518160090160006101000a81548160ff0219169083151502179055506101408201518160090160016101000a8154816001600160a01b0302191690836001600160a01b0316021790555061016082015181600a015561018082015181600b01556101a082015181600c01908051906020019061125c929190611ba2565b506101c0820151805161127991600d840191602090910190611bf7565b5090505060006112863390565b9050611294600584836115af565b506001600160a01b0381166000908152600a602052604090206112b79084611744565b506040808601516000908152600b602052206112d39084611744565b506112e2600980546001019055565b604085810151815185815260208101919091526001600160a01b0383168183015290517f269c6afe2aca013f0509579e940c72d6b65c998b5a6846f4da1c50992c23c50e9181900360600190a150909392505050565b600061052f8383611750565b6000610532826117e4565b60006105326005836117ef565b60008282111561136d5750826113ad565b846113795750826113ad565b670de0b6b3a764000061138c8385612176565b6113969087612157565b6113a09190612137565b6113aa908561211f565b90505b949350505050565b6040516370a0823160e01b81526001600160a01b03838116600483015285916000918316906370a082319060240160206040518083038186803b1580156113fb57600080fd5b505afa15801561140f573d6000803e3d6000fd5b505050506040513d601f19601f820116820180604052508101906114339190611e88565b905061144a6001600160a01b0383168686866117fb565b6040516370a0823160e01b81526001600160a01b038581166004830152849183918516906370a082319060240160206040518083038186803b15801561148f57600080fd5b505afa1580156114a3573d6000803e3d6000fd5b505050506040513d601f19601f820116820180604052508101906114c79190611e88565b6114d19190612176565b146115175760405162461bcd60e51b81526020600482015260166024820152751b9bdd0b595b9bdd59da0b5d1c985b9cd9995c9c995960521b6044820152606401610230565b505050505050565b60005b82518110156115a9576115978483838151811061154f57634e487b7160e01b600052603260045260246000fd5b602002602001015185848151811061157757634e487b7160e01b600052603260045260246000fd5b60200260200101516001600160a01b03166118669092919063ffffffff16565b806115a1816121b9565b915050611522565b50505050565b60006113ad84846001600160a01b038516611896565b6000610532825490565b60008181526002830160205260408120548190806115fe576115f185856118b3565b92506000915061103d9050565b60019250905061103d565b60005b825181101561167f5761166d83828151811061163857634e487b7160e01b600052603260045260246000fd5b602002602001015183838151811061166057634e487b7160e01b600052603260045260246000fd5b60200260200101516118d2565b80611677816121b9565b91505061160c565b505050565b60008282116116c45760405162461bcd60e51b815260206004820152600c60248201526b0696e76616c69642d72616d760a41b6044820152606401610230565b838510156117145760405162461bcd60e51b815260206004820152601d60248201527f70726963652d6e6f742d64657363656e64696e672d6f722d636f6e73740000006044820152606401610230565b61171e8383612176565b6117288587612176565b61173a90670de0b6b3a7640000612157565b6113aa9190612137565b600061052f8383611926565b815460009082106117ae5760405162461bcd60e51b815260206004820152602260248201527f456e756d657261626c655365743a20696e646578206f7574206f6620626f756e604482015261647360f01b6064820152608401610230565b8260000182815481106117d157634e487b7160e01b600052603260045260246000fd5b9060005260206000200154905092915050565b6000610532826115c5565b600061052f83836118b3565b6040516001600160a01b03808516602483015283166044820152606481018290526115a99085906323b872dd60e01b906084015b60408051601f198184030181529190526020810180516001600160e01b03166001600160e01b031990931692909217909152611975565b6040516001600160a01b03831660248201526044810182905261167f90849063a9059cbb60e01b9060640161182f565b600082815260028401602052604081208290556113ad8484611744565b600061052f83836000818152600183016020526040812054151561052f565b806119165760405162461bcd60e51b81526020600482015260146024820152731a5b9d985b1a590b5d1bdad95b8b585b5bdd5b9d60621b6044820152606401610230565b611922823330846113b5565b5050565b600081815260018301602052604081205461196d57508154600181810184556000848152602080822090930184905584548482528286019093526040902091909155610532565b506000610532565b60006119ca826040518060400160405280602081526020017f5361666545524332303a206c6f772d6c6576656c2063616c6c206661696c6564815250856001600160a01b0316611a479092919063ffffffff16565b80519091501561167f57808060200190518101906119e89190611d74565b61167f5760405162461bcd60e51b815260206004820152602a60248201527f5361666545524332303a204552433230206f7065726174696f6e20646964206e6044820152691bdd081cdd58d8d9595960b21b6064820152608401610230565b60606113ad848460008585843b611aa05760405162461bcd60e51b815260206004820152601d60248201527f416464726573733a2063616c6c20746f206e6f6e2d636f6e74726163740000006044820152606401610230565b600080866001600160a01b03168587604051611abc9190611f33565b60006040518083038185875af1925050503d8060008114611af9576040519150601f19603f3d011682016040523d82523d6000602084013e611afe565b606091505b5091509150611b0e828286611b19565b979650505050505050565b60608315611b28575081610dab565b825115611b385782518084602001fd5b8160405162461bcd60e51b81526004016102309190611f4f565b828054828255906000526020600020908101928215611b925760005260206000209182015b82811115611b92578254825591600101919060010190611b77565b50611b9e929150611c32565b5090565b828054828255906000526020600020908101928215611b92579160200282015b82811115611b9257825182546001600160a01b0319166001600160a01b03909116178255602090920191600190910190611bc2565b828054828255906000526020600020908101928215611b92579160200282015b82811115611b92578251825591602001919060010190611c17565b5b80821115611b9e5760008155600101611c33565b80356001600160a01b0381168114610bce57600080fd5b600082601f830112611c6e578081fd5b81356020611c83611c7e836120fb565b6120ca565b80838252828201915082860187848660051b8901011115611ca2578586fd5b855b85811015611cc757611cb582611c47565b84529284019290840190600101611ca4565b5090979650505050505050565b600082601f830112611ce4578081fd5b81356020611cf4611c7e836120fb565b80838252828201915082860187848660051b8901011115611d13578586fd5b855b85811015611cc757813584529284019290840190600101611d15565b600060208284031215611d42578081fd5b61052f82611c47565b60008060408385031215611d5d578081fd5b611d6683611c47565b946020939093013593505050565b600060208284031215611d85578081fd5b81518015158114610dab578182fd5b600060208284031215611da5578081fd5b813567ffffffffffffffff80821115611dbc578283fd5b8184019150610100808387031215611dd2578384fd5b611ddb816120ca565b9050823581526020830135602082015260408301356040820152611e0160608401611c47565b6060820152611e1260808401611c47565b608082015260a083013560a082015260c083013582811115611e32578485fd5b611e3e87828601611c5e565b60c08301525060e083013582811115611e55578485fd5b611e6187828601611cd4565b60e08301525095945050505050565b600060208284031215611e81578081fd5b5035919050565b600060208284031215611e99578081fd5b5051919050565b60008060408385031215611eb2578182fd5b50508035926020909101359150565b6000815180845260208085019450808401835b83811015611ef95781516001600160a01b031687529582019590820190600101611ed4565b509495945050505050565b6000815180845260208085019450808401835b83811015611ef957815187529582019590820190600101611f17565b60008251611f4581846020870161218d565b9190910192915050565b6000602082528251806020840152611f6e81604085016020870161218d565b601f01601f19169190910160400192915050565b6020808252601f908201527f5265656e7472616e637947756172643a207265656e7472616e742063616c6c00604082015260600190565b60006020825282516020830152602083015160408301526040830151606083015260608301516080830152608083015160a083015260a083015161200860c08401826001600160a01b03169052565b5060c08301516001600160a01b03811660e08401525060e0830151610100838101919091528301516101208084019190915283015161014061204d8185018315159052565b8401519050610160612069848201836001600160a01b03169052565b840151610180848101919091528401516101a0808501919091528401516101e06101c0808601829052919250906120a4610200860184611ec1565b90860151858203601f1901838701529092506120c08382611f04565b9695505050505050565b604051601f8201601f1916810167ffffffffffffffff811182821017156120f3576120f36121ea565b604052919050565b600067ffffffffffffffff821115612115576121156121ea565b5060051b60200190565b60008219821115612132576121326121d4565b500190565b60008261215257634e487b7160e01b81526012600452602481fd5b500490565b6000816000190483118215151615612171576121716121d4565b500290565b600082821015612188576121886121d4565b500390565b60005b838110156121a8578181015183820152602001612190565b838111156115a95750506000910152565b60006000198214156121cd576121cd6121d4565b5060010190565b634e487b7160e01b600052601160045260246000fd5b634e487b7160e01b600052604160045260246000fdfea2646970667358221220023b585f032dbbeb5319e0bc254470289878e8c30b879b05e19f137ce03e03ac64736f6c63430008030033",
  "devdoc": {
    "kind": "dev",
    "methods": {},
    "version": 1
  },
  "userdoc": {
    "kind": "user",
    "methods": {},
    "version": 1
  },
  "storageLayout": {
    "storage": [
      {
        "astId": 660,
        "contract": "contracts/DescendingPriceAuction.sol:DescendingPriceAuction",
        "label": "_status",
        "offset": 0,
        "slot": "0",
        "type": "t_uint256"
      },
      {
        "astId": 3404,
        "contract": "contracts/DescendingPriceAuction.sol:DescendingPriceAuction",
        "label": "auctions",
        "offset": 0,
        "slot": "1",
        "type": "t_mapping(t_uint256,t_struct(DPA)4379_storage)"
      },
      {
        "astId": 3407,
        "contract": "contracts/DescendingPriceAuction.sol:DescendingPriceAuction",
        "label": "collections",
        "offset": 0,
        "slot": "2",
        "type": "t_struct(UintToAddressMap)2622_storage"
      },
      {
        "astId": 3410,
        "contract": "contracts/DescendingPriceAuction.sol:DescendingPriceAuction",
        "label": "auctioneers",
        "offset": 0,
        "slot": "5",
        "type": "t_struct(UintToAddressMap)2622_storage"
      },
      {
        "astId": 3413,
        "contract": "contracts/DescendingPriceAuction.sol:DescendingPriceAuction",
        "label": "collectionCount",
        "offset": 0,
        "slot": "8",
        "type": "t_struct(Counter)2082_storage"
      },
      {
        "astId": 3416,
        "contract": "contracts/DescendingPriceAuction.sol:DescendingPriceAuction",
        "label": "auctionCount",
        "offset": 0,
        "slot": "9",
        "type": "t_struct(Counter)2082_storage"
      },
      {
        "astId": 3421,
        "contract": "contracts/DescendingPriceAuction.sol:DescendingPriceAuction",
        "label": "_byNeer",
        "offset": 0,
        "slot": "10",
        "type": "t_mapping(t_address,t_struct(UintSet)3269_storage)"
      },
      {
        "astId": 3426,
        "contract": "contracts/DescendingPriceAuction.sol:DescendingPriceAuction",
        "label": "_byColl",
        "offset": 0,
        "slot": "11",
        "type": "t_mapping(t_uint256,t_struct(UintSet)3269_storage)"
      }
    ],
    "types": {
      "t_address": {
        "encoding": "inplace",
        "label": "address",
        "numberOfBytes": "20"
      },
      "t_array(t_address)dyn_storage": {
        "base": "t_address",
        "encoding": "dynamic_array",
        "label": "address[]",
        "numberOfBytes": "32"
      },
      "t_array(t_bytes32)dyn_storage": {
        "base": "t_bytes32",
        "encoding": "dynamic_array",
        "label": "bytes32[]",
        "numberOfBytes": "32"
      },
      "t_array(t_uint256)dyn_storage": {
        "base": "t_uint256",
        "encoding": "dynamic_array",
        "label": "uint256[]",
        "numberOfBytes": "32"
      },
      "t_bool": {
        "encoding": "inplace",
        "label": "bool",
        "numberOfBytes": "1"
      },
      "t_bytes32": {
        "encoding": "inplace",
        "label": "bytes32",
        "numberOfBytes": "32"
      },
      "t_mapping(t_address,t_struct(UintSet)3269_storage)": {
        "encoding": "mapping",
        "key": "t_address",
        "label": "mapping(address => struct EnumerableSet.UintSet)",
        "numberOfBytes": "32",
        "value": "t_struct(UintSet)3269_storage"
      },
      "t_mapping(t_bytes32,t_bytes32)": {
        "encoding": "mapping",
        "key": "t_bytes32",
        "label": "mapping(bytes32 => bytes32)",
        "numberOfBytes": "32",
        "value": "t_bytes32"
      },
      "t_mapping(t_bytes32,t_uint256)": {
        "encoding": "mapping",
        "key": "t_bytes32",
        "label": "mapping(bytes32 => uint256)",
        "numberOfBytes": "32",
        "value": "t_uint256"
      },
      "t_mapping(t_uint256,t_struct(DPA)4379_storage)": {
        "encoding": "mapping",
        "key": "t_uint256",
        "label": "mapping(uint256 => struct DPA)",
        "numberOfBytes": "32",
        "value": "t_struct(DPA)4379_storage"
      },
      "t_mapping(t_uint256,t_struct(UintSet)3269_storage)": {
        "encoding": "mapping",
        "key": "t_uint256",
        "label": "mapping(uint256 => struct EnumerableSet.UintSet)",
        "numberOfBytes": "32",
        "value": "t_struct(UintSet)3269_storage"
      },
      "t_struct(Bytes32Set)3051_storage": {
        "encoding": "inplace",
        "label": "struct EnumerableSet.Bytes32Set",
        "members": [
          {
            "astId": 3050,
            "contract": "contracts/DescendingPriceAuction.sol:DescendingPriceAuction",
            "label": "_inner",
            "offset": 0,
            "slot": "0",
            "type": "t_struct(Set)2867_storage"
          }
        ],
        "numberOfBytes": "64"
      },
      "t_struct(Counter)2082_storage": {
        "encoding": "inplace",
        "label": "struct Counters.Counter",
        "members": [
          {
            "astId": 2081,
            "contract": "contracts/DescendingPriceAuction.sol:DescendingPriceAuction",
            "label": "_value",
            "offset": 0,
            "slot": "0",
            "type": "t_uint256"
          }
        ],
        "numberOfBytes": "32"
      },
      "t_struct(DPA)4379_storage": {
        "encoding": "inplace",
        "label": "struct DPA",
        "members": [
          {
            "astId": 4348,
            "contract": "contracts/DescendingPriceAuction.sol:DescendingPriceAuction",
            "label": "id",
            "offset": 0,
            "slot": "0",
            "type": "t_uint256"
          },
          {
            "astId": 4350,
            "contract": "contracts/DescendingPriceAuction.sol:DescendingPriceAuction",
            "label": "ceiling",
            "offset": 0,
            "slot": "1",
            "type": "t_uint256"
          },
          {
            "astId": 4352,
            "contract": "contracts/DescendingPriceAuction.sol:DescendingPriceAuction",
            "label": "floor",
            "offset": 0,
            "slot": "2",
            "type": "t_uint256"
          },
          {
            "astId": 4354,
            "contract": "contracts/DescendingPriceAuction.sol:DescendingPriceAuction",
            "label": "absoluteDecay",
            "offset": 0,
            "slot": "3",
            "type": "t_uint256"
          },
          {
            "astId": 4356,
            "contract": "contracts/DescendingPriceAuction.sol:DescendingPriceAuction",
            "label": "collectionId",
            "offset": 0,
            "slot": "4",
            "type": "t_uint256"
          },
          {
            "astId": 4358,
            "contract": "contracts/DescendingPriceAuction.sol:DescendingPriceAuction",
            "label": "paymentToken",
            "offset": 0,
            "slot": "5",
            "type": "t_address"
          },
          {
            "astId": 4360,
            "contract": "contracts/DescendingPriceAuction.sol:DescendingPriceAuction",
            "label": "payee",
            "offset": 0,
            "slot": "6",
            "type": "t_address"
          },
          {
            "astId": 4362,
            "contract": "contracts/DescendingPriceAuction.sol:DescendingPriceAuction",
            "label": "startBlock",
            "offset": 0,
            "slot": "7",
            "type": "t_uint256"
          },
          {
            "astId": 4364,
            "contract": "contracts/DescendingPriceAuction.sol:DescendingPriceAuction",
            "label": "endBlock",
            "offset": 0,
            "slot": "8",
            "type": "t_uint256"
          },
          {
            "astId": 4366,
            "contract": "contracts/DescendingPriceAuction.sol:DescendingPriceAuction",
            "label": "stopped",
            "offset": 0,
            "slot": "9",
            "type": "t_bool"
          },
          {
            "astId": 4368,
            "contract": "contracts/DescendingPriceAuction.sol:DescendingPriceAuction",
            "label": "winner",
            "offset": 1,
            "slot": "9",
            "type": "t_address"
          },
          {
            "astId": 4370,
            "contract": "contracts/DescendingPriceAuction.sol:DescendingPriceAuction",
            "label": "winningBlock",
            "offset": 0,
            "slot": "10",
            "type": "t_uint256"
          },
          {
            "astId": 4372,
            "contract": "contracts/DescendingPriceAuction.sol:DescendingPriceAuction",
            "label": "winningPrice",
            "offset": 0,
            "slot": "11",
            "type": "t_uint256"
          },
          {
            "astId": 4375,
            "contract": "contracts/DescendingPriceAuction.sol:DescendingPriceAuction",
            "label": "tokens",
            "offset": 0,
            "slot": "12",
            "type": "t_array(t_address)dyn_storage"
          },
          {
            "astId": 4378,
            "contract": "contracts/DescendingPriceAuction.sol:DescendingPriceAuction",
            "label": "tokenAmounts",
            "offset": 0,
            "slot": "13",
            "type": "t_array(t_uint256)dyn_storage"
          }
        ],
        "numberOfBytes": "448"
      },
      "t_struct(Map)2392_storage": {
        "encoding": "inplace",
        "label": "struct EnumerableMap.Map",
        "members": [
          {
            "astId": 2387,
            "contract": "contracts/DescendingPriceAuction.sol:DescendingPriceAuction",
            "label": "_keys",
            "offset": 0,
            "slot": "0",
            "type": "t_struct(Bytes32Set)3051_storage"
          },
          {
            "astId": 2391,
            "contract": "contracts/DescendingPriceAuction.sol:DescendingPriceAuction",
            "label": "_values",
            "offset": 0,
            "slot": "2",
            "type": "t_mapping(t_bytes32,t_bytes32)"
          }
        ],
        "numberOfBytes": "96"
      },
      "t_struct(Set)2867_storage": {
        "encoding": "inplace",
        "label": "struct EnumerableSet.Set",
        "members": [
          {
            "astId": 2862,
            "contract": "contracts/DescendingPriceAuction.sol:DescendingPriceAuction",
            "label": "_values",
            "offset": 0,
            "slot": "0",
            "type": "t_array(t_bytes32)dyn_storage"
          },
          {
            "astId": 2866,
            "contract": "contracts/DescendingPriceAuction.sol:DescendingPriceAuction",
            "label": "_indexes",
            "offset": 0,
            "slot": "1",
            "type": "t_mapping(t_bytes32,t_uint256)"
          }
        ],
        "numberOfBytes": "64"
      },
      "t_struct(UintSet)3269_storage": {
        "encoding": "inplace",
        "label": "struct EnumerableSet.UintSet",
        "members": [
          {
            "astId": 3268,
            "contract": "contracts/DescendingPriceAuction.sol:DescendingPriceAuction",
            "label": "_inner",
            "offset": 0,
            "slot": "0",
            "type": "t_struct(Set)2867_storage"
          }
        ],
        "numberOfBytes": "64"
      },
      "t_struct(UintToAddressMap)2622_storage": {
        "encoding": "inplace",
        "label": "struct EnumerableMap.UintToAddressMap",
        "members": [
          {
            "astId": 2621,
            "contract": "contracts/DescendingPriceAuction.sol:DescendingPriceAuction",
            "label": "_inner",
            "offset": 0,
            "slot": "0",
            "type": "t_struct(Map)2392_storage"
          }
        ],
        "numberOfBytes": "96"
      },
      "t_uint256": {
        "encoding": "inplace",
        "label": "uint256",
        "numberOfBytes": "32"
      }
    }
  }
}